{
  "contractName": "TokenSwap",
  "abi": [
    {
      "anonymous": false,
      "inputs": [
        {
          "indexed": false,
          "internalType": "address",
          "name": "from",
          "type": "address"
        },
        {
          "indexed": false,
          "internalType": "address",
          "name": "to",
          "type": "address"
        },
        {
          "indexed": false,
          "internalType": "uint256",
          "name": "amount",
          "type": "uint256"
        }
      ],
      "name": "Sent",
      "type": "event"
    },
    {
      "inputs": [],
      "name": "name",
      "outputs": [
        {
          "internalType": "string",
          "name": "",
          "type": "string"
        }
      ],
      "stateMutability": "view",
      "type": "function",
      "constant": true
    },
    {
      "inputs": [
        {
          "internalType": "address",
          "name": "_buyer",
          "type": "address"
        },
        {
          "internalType": "uint256",
          "name": "_amount",
          "type": "uint256"
        }
      ],
      "name": "transferEthToBuyer",
      "outputs": [],
      "stateMutability": "nonpayable",
      "type": "function"
    }
  ],
  "bytecode": "0x60806040526040518060400160405280600d81526020017f546f6b656e5377617020444558000000000000000000000000000000000000008152506000908051906020019061004f929190610062565b5034801561005c57600080fd5b50610166565b82805461006e90610105565b90600052602060002090601f01602090048101928261009057600085556100d7565b82601f106100a957805160ff19168380011785556100d7565b828001600101855582156100d7579182015b828111156100d65782518255916020019190600101906100bb565b5b5090506100e491906100e8565b5090565b5b808211156101015760008160009055506001016100e9565b5090565b6000600282049050600182168061011d57607f821691505b6020821081141561013157610130610137565b5b50919050565b7f4e487b7100000000000000000000000000000000000000000000000000000000600052602260045260246000fd5b610424806101756000396000f3fe608060405234801561001057600080fd5b50600436106100365760003560e01c806306fdde031461003b57806366a5b53214610059575b600080fd5b610043610075565b60405161005091906102a1565b60405180910390f35b610073600480360381019061006e91906101d7565b610103565b005b600080546100829061034e565b80601f01602080910402602001604051908101604052809291908181526020018280546100ae9061034e565b80156100fb5780601f106100d0576101008083540402835291602001916100fb565b820191906000526020600020905b8154815290600101906020018083116100de57829003601f168201915b505050505081565b803373ffffffffffffffffffffffffffffffffffffffff1631101561012757600080fd5b8173ffffffffffffffffffffffffffffffffffffffff166108fc829081150290604051600060405180830381858888f1935050505015801561016d573d6000803e3d6000fd5b507f3990db2d31862302a685e8086b5755072a6e2b5b780af1ee81ece35ee3cd33453383836040516101a19392919061026a565b60405180910390a15050565b6000813590506101bc816103c0565b92915050565b6000813590506101d1816103d7565b92915050565b600080604083850312156101ea57600080fd5b60006101f8858286016101ad565b9250506020610209858286016101c2565b9150509250929050565b61021c816102df565b82525050565b600061022d826102c3565b61023781856102ce565b935061024781856020860161031b565b610250816103af565b840191505092915050565b61026481610311565b82525050565b600060608201905061027f6000830186610213565b61028c6020830185610213565b610299604083018461025b565b949350505050565b600060208201905081810360008301526102bb8184610222565b905092915050565b600081519050919050565b600082825260208201905092915050565b60006102ea826102f1565b9050919050565b600073ffffffffffffffffffffffffffffffffffffffff82169050919050565b6000819050919050565b60005b8381101561033957808201518184015260208101905061031e565b83811115610348576000848401525b50505050565b6000600282049050600182168061036657607f821691505b6020821081141561037a57610379610380565b5b50919050565b7f4e487b7100000000000000000000000000000000000000000000000000000000600052602260045260246000fd5b6000601f19601f8301169050919050565b6103c9816102df565b81146103d457600080fd5b50565b6103e081610311565b81146103eb57600080fd5b5056fea2646970667358221220c9dbf82b4c605e3d46098db2ab13c1ab36dce5940dadafff935ad60e7ef3ee3264736f6c63430008040033",
  "immutableReferences": {},
  "source": "pragma solidity ^0.8.4;\r\n\r\ncontract TokenSwap {\r\n\tstring public name = \"TokenSwap DEX\";\r\n\r\n\tevent Sent(address from, address to, uint amount);\r\n\r\n\t//2. transfer ether  to another account from one account\r\n\tfunction transferEthToBuyer(address _buyer, uint _amount) public {\r\n\t\trequire(msg.sender.balance >= _amount);\r\n\t\tpayable(_buyer).transfer(_amount);\r\n\t\temit Sent(msg.sender, _buyer, _amount);\r\n\t}\r\n}",
  "sourcePath": "C:/Users/tunde/Documents/Blockchain/DEX/src/contracts/TokenSwap.sol",
  "compiler": {
    "name": "solc",
    "version": "0.8.4+commit.c7e474f2.Emscripten.clang"
  },
  "schemaVersion": "3.4.1",
  "updatedAt": "2021-06-08T12:35:42.943Z",
  "networkType": "ethereum",
  "devdoc": {
    "kind": "dev",
    "methods": {},
    "version": 1
  },
  "userdoc": {
    "kind": "user",
    "methods": {},
    "version": 1
  }
}