{
  "contractName": "TokenSwap",
  "abi": [
    {
      "anonymous": false,
      "inputs": [
        {
          "indexed": false,
          "internalType": "address",
          "name": "from",
          "type": "address"
        },
        {
          "indexed": false,
          "internalType": "address",
          "name": "to",
          "type": "address"
        },
        {
          "indexed": false,
          "internalType": "uint256",
          "name": "amount",
          "type": "uint256"
        }
      ],
      "name": "Sent",
      "type": "event"
    },
    {
      "inputs": [],
      "name": "name",
      "outputs": [
        {
          "internalType": "string",
          "name": "",
          "type": "string"
        }
      ],
      "stateMutability": "view",
      "type": "function",
      "constant": true
    },
    {
      "inputs": [
        {
          "internalType": "address",
          "name": "_buyer",
          "type": "address"
        }
      ],
      "name": "transferEthToBuyer",
      "outputs": [],
      "stateMutability": "payable",
      "type": "function",
      "payable": true
    }
  ],
  "bytecode": "0x60806040526040518060400160405280600d81526020017f546f6b656e5377617020444558000000000000000000000000000000000000008152506000908051906020019061004f929190610062565b5034801561005c57600080fd5b50610166565b82805461006e90610105565b90600052602060002090601f01602090048101928261009057600085556100d7565b82601f106100a957805160ff19168380011785556100d7565b828001600101855582156100d7579182015b828111156100d65782518255916020019190600101906100bb565b5b5090506100e491906100e8565b5090565b5b808211156101015760008160009055506001016100e9565b5090565b6000600282049050600182168061011d57607f821691505b6020821081141561013157610130610137565b5b50919050565b7f4e487b7100000000000000000000000000000000000000000000000000000000600052602260045260246000fd5b6103e4806101756000396000f3fe6080604052600436106100295760003560e01c806306fdde031461002e57806397ae40bb14610059575b600080fd5b34801561003a57600080fd5b50610043610075565b6040516100509190610278565b60405180910390f35b610073600480360381019061006e91906101c1565b610103565b005b6000805461008290610325565b80601f01602080910402602001604051908101604052809291908181526020018280546100ae90610325565b80156100fb5780601f106100d0576101008083540402835291602001916100fb565b820191906000526020600020905b8154815290600101906020018083116100de57829003601f168201915b505050505081565b343373ffffffffffffffffffffffffffffffffffffffff1631101561012757600080fd5b8073ffffffffffffffffffffffffffffffffffffffff166108fc349081150290604051600060405180830381858888f1935050505015801561016d573d6000803e3d6000fd5b507f3990db2d31862302a685e8086b5755072a6e2b5b780af1ee81ece35ee3cd33453382346040516101a193929190610241565b60405180910390a150565b6000813590506101bb81610397565b92915050565b6000602082840312156101d357600080fd5b60006101e1848285016101ac565b91505092915050565b6101f3816102b6565b82525050565b60006102048261029a565b61020e81856102a5565b935061021e8185602086016102f2565b61022781610386565b840191505092915050565b61023b816102e8565b82525050565b600060608201905061025660008301866101ea565b61026360208301856101ea565b6102706040830184610232565b949350505050565b6000602082019050818103600083015261029281846101f9565b905092915050565b600081519050919050565b600082825260208201905092915050565b60006102c1826102c8565b9050919050565b600073ffffffffffffffffffffffffffffffffffffffff82169050919050565b6000819050919050565b60005b838110156103105780820151818401526020810190506102f5565b8381111561031f576000848401525b50505050565b6000600282049050600182168061033d57607f821691505b6020821081141561035157610350610357565b5b50919050565b7f4e487b7100000000000000000000000000000000000000000000000000000000600052602260045260246000fd5b6000601f19601f8301169050919050565b6103a0816102b6565b81146103ab57600080fd5b5056fea264697066735822122021fc3d51bd9a256783cfe26fd1a072b5dad8878d55f3a9098e872d902b2ff6a164736f6c63430008040033",
  "immutableReferences": {},
  "source": "pragma solidity ^0.8.4;\r\n\r\ncontract TokenSwap {\r\n\tstring public name = \"TokenSwap DEX\";\r\n\r\n\tevent Sent(address from, address to, uint amount);\r\n\r\n\t//2. transfer ether  to another account from one account\r\n\tfunction transferEthToBuyer(address _buyer) public payable {\r\n\t\trequire(msg.sender.balance >= msg.value);\r\n\t\tpayable(_buyer).transfer(msg.value);\r\n\t\temit Sent(msg.sender, _buyer, msg.value);\r\n\t}\r\n}",
  "sourcePath": "C:/Users/tunde/Documents/Blockchain/DEX/src/contracts/TokenSwap.sol",
  "compiler": {
    "name": "solc",
    "version": "0.8.4+commit.c7e474f2.Emscripten.clang"
  },
  "schemaVersion": "3.4.1",
  "updatedAt": "2021-06-08T22:56:47.635Z",
  "networkType": "ethereum",
  "devdoc": {
    "kind": "dev",
    "methods": {},
    "version": 1
  },
  "userdoc": {
    "kind": "user",
    "methods": {},
    "version": 1
  }
}